{
  "contractName": "Faucet",
  "abi": [
    {
      "constant": true,
      "inputs": [],
      "name": "timeRemain",
      "outputs": [
        {
          "name": "",
          "type": "uint256"
        }
      ],
      "payable": false,
      "stateMutability": "view",
      "type": "function"
    },
    {
      "constant": true,
      "inputs": [],
      "name": "getContractBalance",
      "outputs": [
        {
          "name": "",
          "type": "uint256"
        }
      ],
      "payable": false,
      "stateMutability": "view",
      "type": "function"
    },
    {
      "constant": false,
      "inputs": [],
      "name": "giveMoney",
      "outputs": [],
      "payable": false,
      "stateMutability": "nonpayable",
      "type": "function"
    },
    {
      "constant": false,
      "inputs": [],
      "name": "replenish",
      "outputs": [],
      "payable": true,
      "stateMutability": "payable",
      "type": "function"
    },
    {
      "constant": true,
      "inputs": [],
      "name": "getAmount",
      "outputs": [
        {
          "name": "",
          "type": "uint256"
        }
      ],
      "payable": false,
      "stateMutability": "view",
      "type": "function"
    }
  ],
  "bytecode": "0x6060604052603c6001556706f05b59d3b20000600255341561002057600080fd5b6103c08061002f6000396000f30060606040526004361061006d576000357c0100000000000000000000000000000000000000000000000000000000900463ffffffff16806303e0989e146100725780636f9fb98a1461009b578063a58cb652146100c4578063d163af7b146100d9578063d321fe29146100e3575b600080fd5b341561007d57600080fd5b61008561010c565b6040518082815260200191505060405180910390f35b34156100a657600080fd5b6100ae6101ad565b6040518082815260200191505060405180910390f35b34156100cf57600080fd5b6100d76101cc565b005b6100e1610388565b005b34156100ee57600080fd5b6100f661038a565b6040518082815260200191505060405180910390f35b60006001546000803373ffffffffffffffffffffffffffffffffffffffff1673ffffffffffffffffffffffffffffffffffffffff16815260200190815260200160002054420310151561016257600090506101aa565b426001546000803373ffffffffffffffffffffffffffffffffffffffff1673ffffffffffffffffffffffffffffffffffffffff16815260200190815260200160002054010390505b90565b60003073ffffffffffffffffffffffffffffffffffffffff1631905090565b6002543073ffffffffffffffffffffffffffffffffffffffff163110156101f257600080fd5b60008060003373ffffffffffffffffffffffffffffffffffffffff1673ffffffffffffffffffffffffffffffffffffffff1681526020019081526020016000205414156102ba573373ffffffffffffffffffffffffffffffffffffffff166108fc6002549081150290604051600060405180830381858888f19350505050156102b957426000803373ffffffffffffffffffffffffffffffffffffffff1673ffffffffffffffffffffffffffffffffffffffff168152602001908152602001600020819055505b5b6001546000803373ffffffffffffffffffffffffffffffffffffffff1673ffffffffffffffffffffffffffffffffffffffff168152602001908152602001600020544203101515610386573373ffffffffffffffffffffffffffffffffffffffff166108fc6002549081150290604051600060405180830381858888f193505050501561038557426000803373ffffffffffffffffffffffffffffffffffffffff1673ffffffffffffffffffffffffffffffffffffffff168152602001908152602001600020819055505b5b565b565b60006002549050905600a165627a7a723058204df9f291afde159934d5f3e8ffaf6e9ef2783859048a81df80754cb6ce8857d20029",
  "source": "pragma solidity ^0.4.16;\n\ncontract Faucet {\n    mapping(address => uint) usersTime;\n    uint sleepTime = 1 minutes; // or can write .. minutes\n    uint amount = 500000000000000000;\n    \n    modifier canReceiveMoney() {\n        if (this.balance < amount) {\n            throw;\n        }\n        if (usersTime[msg.sender] == 0) {\n            _;\n        }\n        if (now - usersTime[msg.sender] >= sleepTime) {\n            _;\n        }\n    }\n    \n    function replenish() payable {}\n\n    function getAmount() constant returns(uint) {\n        return amount;\n    }\n    \n    function getContractBalance() constant returns(uint) {\n        return this.balance;\n    }\n    \n    function giveMoney() canReceiveMoney {\n        if (msg.sender.send(amount)) {\n            usersTime[msg.sender] = now;\n        }\n    }\n    \n    function timeRemain() constant returns(uint) {\n        if (now - usersTime[msg.sender] >= sleepTime) {\n            return 0;\n        }\n        return usersTime[msg.sender] + sleepTime - now;\n    }\n}",
  "sourcePath": "/Users/Romanusherenko/Documents/Solidity/Dapp/truffle/faucet2/contracts/Faucet.sol",
  "compiler": {
    "name": "solc",
    "version": "0.4.18+commit.9cf6e910.Emscripten.clang"
  },
  "schemaVersion": "1.0.1",
  "updatedAt": "2017-11-11T07:20:18.753Z"
}